:1000000012C046C056C02AC029C028C027C026C07A
:1000100025C024C023C02BC021C020C01FC01EC0CB
:100020001DC01CC01BC011241FBECFE5D4E0DEBF25
:10003000CDBF10E0A0E6B0E0E2E0F1E002C0059044
:100040000D92A036B107D9F710E0A0E6B0E001C0EC
:100050001D92A136B107E1F736D051C0D1CF5D9BDB
:10006000FECF8CB908955F9BFECF8CB108951F928F
:100070000F920FB60F9211248F938CB18093600072
:100080008CB915BA8F910F900FBE0F901F901895D5
:100090001F920F920FB60F9211248F9380916000E0
:1000A00088BB81E085BB8F910F900FBE0F901F9092
:1000B00018951F920F920FB60F9211240F900FBE3A
:1000C0000F901F901895F8948FEF87BB91E094BB29
:1000D00011BA88BB85BB8CE082BB12BC80E888B9B2
:1000E00082E085BF80E48BBF10BC8FE089B91BB86C
:1000F00088E18AB986E880BD579A7894FFCFF89452
:02010000FFCF2F
:00000001FF
